:100000000C942A000C9447000C9447000C94470071
:100010000C9447000C9447000C9447000C94470044
:100020000C9447000C9447000C9447000C94470034
:100030000C9447000C9447000C9447000C94470024
:100040000C9490030C9447000C9447000C944700C8
:100050000C94470011241FBECFE5D8E0DEBFCDBF12
:1000600010E0A0E6B0E0E8E9FDE002C005900D92E6
:10007000AE36B107D9F710E0AEE6B0E001C01D9290
:10008000A237B107E1F70E9489000C94CA060C94CC
:100090000000CF93DF93EC0181E00E941E0180E617
:1000A00090E00E94CB016881798180E090E00E941D
:1000B000A30520E030E44CE955E40E94090620E065
:1000C00030E040E85AE30E9409060E947705DC010F
:1000D000CB016AE070E00E94940680E090E00E940C
:1000E00024028FED0E94BB0083E40E94BB008FEFCF
:1000F00092E5A7E081509040A040E1F700C00000E9
:1001000083E090E060E070E00E942503DF91CF91F2
:1001100008950E943E030E94820180E467E048E067
:100120000E9441030E94710589E490E00E948603C9
:100130008FEF94E3ACE081509040A040E1F700C025
:1001400000000E94840383E090E060E070E00E9481
:100150001C03F7CF80E062E041E00E94D30389EF07
:1001600090E00197F1F700C0000080E062E040E01D
:100170000E94D3030895CF93C82F80E060E041E050
:100180000E94D30380E061E040E00E94D3034C2F43
:1001900042954F70417081E064E00E94D3034C2F80
:1001A000429546954770417081E065E00E94D30317
:1001B0004C2F4295469546954370417081E066E02C
:1001C0000E94D3034C2F441F4427441F81E067E063
:1001D0000E94D3030E94AA0080E060E041E00E94F8
:1001E000D30380E061E040E00E94D3034C2F4170D4
:1001F00081E064E00E94D3034C2F4695417081E07A
:1002000065E00E94D3034C2F46954695417081E0EE
:1002100066E00E94D303C695C695C6954C2F4170E3
:1002200081E067E00E94D3030E94AA0087EB9BE075
:100230000197F1F700C00000CF910895CF93C82F28
:1002400080E060E040E00E94D30380E061E040E0B5
:100250000E94D3034C2F42954F70417081E064E0BF
:100260000E94D3034C2F429546954770417081E020
:1002700065E00E94D3034C2F429546954695437006
:10028000417081E066E00E94D3034C2F441F442755
:10029000441F81E067E00E94D3030E94AA0080E02F
:1002A00060E040E00E94D30380E061E040E00E9413
:1002B000D3034C2F417081E064E00E94D3034C2FA4
:1002C0004695417081E065E00E94D3034C2F46952E
:1002D0004695417081E066E00E94D303C695C695BD
:1002E000C6954C2F417081E067E00E94D3030E94C5
:1002F000AA0087EB9BE00197F1F700C0000080E0C7
:10030000CF9108958FE39FE10197F1F700C00000BE
:1003100082E00E941E0188E20E941E0189EF90E0A7
:100320000197F1F700C000008CE00E941E0189EFE8
:1003300090E00197F1F700C0000081E00E941E01EB
:1003400083EF91E00197F1F700C0000086E00E9482
:100350001E0185ED96E00197F1F700C000000895B9
:10036000823098F4603198F4882319F0813089F450
:1003700006C0862F80580E941E0180E00895862FB7
:1003800080540E941E0180E0089581E0089581E07C
:10039000089580E00895CF93DF93EC01009751F02A
:1003A0008881882349F021960E94BB008991882387
:1003B000D9F703C081E001C080E0DF91CF910895BB
:1003C000DF92EF92FF920F931F93CF93DF93EC0195
:1003D000F62EE42ED22E009741F187E0861738F1F1
:1003E00091E0941730F18FE0821728F1862F880F63
:1003F000880F880F805C0E941E018E01085F1F4FCE
:1004000089910E94BB0081EE94E00197F1F700C052
:100410000000C017D107A1F78E2D6D2D0E94B001ED
:100420008F2D0E94BB0080E007C081E005C081E005
:1004300003C081E001C081E0DF91CF911F910F9156
:10044000FF90EF90DF9008958F929F92AF92BF92AE
:10045000FF920F931F93CF93DF93CDB7DEB72F9704
:100460000FB6F894DEBF0FBECDBF8B019C016115A6
:1004700071058105910521F480E30E94BB0033C022
:10048000FF240F2EFAE08F2EF0E09F2EF0E0AF2E2B
:10049000F0E0BF2EF02DC901B801A50194010E9422
:1004A000A80689019A01E1E0F0E0EC0FFD1FEF0DD5
:1004B000F11D6083F394011511052105310559F7EC
:1004C0001F2D115082F0E12FFF27E7FDF09581E00D
:1004D00090E08C0F9D1FE80FF91F8081805D0E94C6
:1004E000BB00115082F72F960FB6F894DEBF0FBEF7
:1004F000CDBFDF91CF911F910F91FF90BF90AF9033
:100500009F908F900895DF92EF92FF920F931F9329
:10051000CF93DF9383E50E94BB0081E061E00E94FE
:10052000B00185E40E94BB0080E062E00E94B0015F
:1005300089E40E94BB0081E063E00E94B00186E490
:100540000E94BB008FE493EC0197F1F700C000001C
:1005500080E10E941E01DD24C4E0D0E0EE24E3949B
:1005600080E00E94BB00DD2031F48D2F6C2F0E94B3
:10057000B001DE2C06C0DE25CF5F8D2F6C2F0E94D0
:10058000B00186E40E94BB0087EA91E60197F1F78B
:1005900000C000000F2EFEEFFF2EF02DFC0E8D2F61
:1005A0006F2D0E94B00180E00E94BB001D2F1E2510
:1005B0006C2F6150812F0E94B00189E40E94BB0022
:1005C00087EA91E60197F1F700C000000C2F035075
:1005D000812F602F0E94B00180E00E94BB008D2F10
:1005E0006F2D0E94B00185E40E94BB0087EA91E66E
:1005F0000197F1F700C000006C2F64508D2F0E940E
:10060000B00180E00E94BB00812F602F0E94B001EA
:1006100083E50E94BB0087EA91E60197F1F700C0ED
:100620000000C33108F49CCFDF91CF911F910F914F
:10063000FF90EF90DF90089541E00E94D30391E096
:10064000813009F090E0892F089540E00E94D303A3
:1006500091E0813009F090E0892F08950E942305F0
:1006600091E0813009F090E0892F08950E9469049B
:1006700091E0813009F090E0892F08950E94C6032F
:100680000895882321F0803411F0803C89F468308B
:1006900088F497B1892B87B987B1682B67B986B180
:1006A000866086B9379A86B1482B46B980E00895AE
:1006B00081E0089581E00895369A88E893E126B1B3
:1006C00024FD06C001972FEF8F3F9207C1F702C0AC
:1006D000009719F0349A80E0089581E0089586B17A
:1006E00086B90895FC01009769F024B130E03183A8
:1006F000208345B1942F80E0822B932B91838083BC
:1007000080E0089581E00895369A0895009731F0C9
:10071000909371008093700080E0089581E00895C7
:100720001F920F920FB60F9211242F933F934F9366
:100730005F936F937F938F939F93AF93BF93EF9349
:10074000FF9324B135B1932F80E030E0822B932BBF
:1007500090936F0080936E00E0917000F0917100B3
:10076000309719F08EE690E00995FF91EF91BF91D7
:10077000AF919F918F917F916F915F914F913F9139
:100780002F910F900FBE0F901F9018958FE78ABB87
:100790008FEB87BB8FEF84BB9EEF91BB1BBA18BA60
:1007A00085BB12BA0895843008F08BC0683008F019
:1007B0008AC0423008F089C0813041F1813038F080
:1007C000823009F441C0833009F081C05BC0413000
:1007D00071F42BB381E090E0AC0102C0440F551FCF
:1007E0006A95E2F7BA01622B6BBB80E008952BB3E8
:1007F00081E090E0AC0102C0440F551F6A95E2F71A
:10080000BA01609562236BBB80E00895413069F4C2
:1008100048B321E030E0C90102C0880F991F6A95F2
:10082000E2F7842B88BB80E0089528B381E090E054
:10083000AC0102C0440F551F6A95E2F7BA016095FA
:10084000622368BB80E00895413069F445B321E03C
:1008500030E0C90102C0880F991F6A95E2F7842B26
:1008600085BB80E0089525B381E090E0AC0102C033
:10087000440F551F6A95E2F7BA016095622365BB84
:1008800080E00895413071F422B381E090E0AC0142
:1008900002C0440F551F6A95E2F7BA01622B62BB92
:1008A00080E0089522B381E090E0AC0102C0440FE3
:1008B000551F6A95E2F7BA016095622362BB80E03A
:1008C000089581E0089581E0089581E0089580E031
:1008D0000895843008F049C0683008F048C04115D8
:1008E000510509F446C08130B1F0813030F08230DA
:1008F00001F1833009F03FC02AC089B390E09C0128
:1009000002C0359527956A95E2F7B9016170FA0141
:10091000608380E0089586B390E09C0102C0359525
:1009200027956A95E2F7B9016170FA01608380E06A
:10093000089583B390E09C0102C0359527956A9590
:10094000E2F7B9016170FA01608380E0089580B335
:1009500090E09C0102C0359527956A95E2F7B901B0
:100960006170FA01608380E0089581E0089581E07C
:10097000089581E0089580E008958430A8F48130DE
:1009800051F0813028F0823049F0833079F409C089
:100990006BBB80E0089568BB80E0089565BB80E094
:1009A000089562BB80E0089581E0089580E0089595
:1009B000843000F561157105F9F0813061F0813006
:1009C00028F0823069F08330C9F40FC08BB3FB018B
:1009D000808380E0089588B3FB01808380E00895E0
:1009E00085B3FB01808380E0089582B3FB0180839F
:1009F00080E0089581E0089581E0089580E0089501
:100A00008430E8F4813061F0813028F0823069F080
:100A10008330B9F40FC08BB380958BBB80E0089511
:100A20008BB3809588BB80E0089585B3809585BBA6
:100A300080E0089582B3809582BB80E0089581E0D4
:100A4000089580E00895843008F045C0683008F0CB
:100A500044C08130B1F0813030F0823001F1833018
:100A600009F03DC02AC02BB381E090E0AC0102C088
:100A7000440F551F6A95E2F7BA0162276BBB80E00D
:100A8000089528B381E090E0AC0102C0440F551FE7
:100A90006A95E2F7BA01622768BB80E0089525B342
:100AA00081E090E0AC0102C0440F551F6A95E2F767
:100AB000BA01622765BB80E0089522B381E090E02F
:100AC000AC0102C0440F551F6A95E2F7BA016227D4
:100AD00062BB80E0089581E0089581E0089580E0A0
:100AE00008958FB780688FBF08951FBE089570D096
:100AF00088F09F5790F0B92F9927B751A0F0D1F007
:100B0000660F771F881F991F1AF0BA95C9F712C090
:100B1000B13081F077D0B1E0089574C0672F782F9D
:100B20008827B85F39F0B93FCCF3869577956795FC
:100B3000B395D9F73EF490958095709561957F4F68
:100B40008F4F9F4F0895E89409C097FB3EF490950E
:100B50008095709561957F4F8F4F9F4F9923A9F096
:100B6000F92F96E9BB279395F69587957795679525
:100B7000B795F111F8CFFAF4BB0F11F460FF1BC069
:100B80006F5F7F4F8F4F9F4F16C0882311F096E9FC
:100B900011C0772321F09EE8872F762F05C06623AA
:100BA00071F096E8862F70E060E02AF09A95660F63
:100BB000771F881FDAF7880F9695879597F908951C
:100BC00057FD9058440F551F59F05F3F71F04795FE
:100BD000880F97FB991F61F09F3F79F087950895E3
:100BE000121613061406551FF2CF4695F1DF08C002
:100BF000161617061806991FF1CF8695710561051F
:100C000008940895E894BB2766277727CB0197F9C6
:100C100008950BD078C069D028F06ED018F09523D5
:100C200009F05AC05FC01124EECFCADFA0F3959F30
:100C3000D1F3950F50E0551F629FF001729FBB27C3
:100C4000F00DB11D639FAA27F00DB11DAA1F649F6F
:100C50006627B00DA11D661F829F2227B00DA11D22
:100C6000621F739FB00DA11D621F839FA00D611DA8
:100C7000221F749F3327A00D611D231F849F600DC9
:100C8000211D822F762F6A2F11249F5750408AF002
:100C9000E1F088234AF0EE0FFF1FBB1F661F771F8E
:100CA000881F91505040A9F79E3F510570F014C025
:100CB000AACF5F3FECF3983EDCF386957795679576
:100CC000B795F795E7959F5FC1F7FE2B880F911DAC
:100CD0009695879597F9089597F99F6780E870E052
:100CE00060E008959FEF80EC089500240A941616A2
:100CF000170618060906089500240A94121613060A
:100D0000140605060895092E0394000C11F4882397
:100D100052F0BB0F40F4BF2B11F460FF04C06F5FB3
:100D20007F4F8F4F9F4F0895AA1BBB1B51E107C0F8
:100D3000AA1FBB1FA617B70710F0A61BB70B881F6B
:100D4000991F5A95A9F780959095BC01CD010895FA
:100D5000A1E21A2EAA1BBB1BFD010DC0AA1FBB1FBF
:100D6000EE1FFF1FA217B307E407F50720F0A21B31
:100D7000B30BE40BF50B661F771F881F991F1A949E
:100D800069F760957095809590959B01AC01BD01C8
:080D9000CF010895F894FFCF94
:0E0D980054656D70657261747572653A200065
:00000001FF
